{
  "contractName": "Payroll",
  "abi": [
    {
      "constant": true,
      "inputs": [],
      "name": "markCompleted",
      "outputs": [
        {
          "name": "",
          "type": "bool"
        }
      ],
      "payable": false,
      "stateMutability": "view",
      "type": "function"
    },
    {
      "constant": true,
      "inputs": [],
      "name": "startTime",
      "outputs": [
        {
          "name": "",
          "type": "uint256"
        }
      ],
      "payable": false,
      "stateMutability": "view",
      "type": "function"
    },
    {
      "constant": true,
      "inputs": [],
      "name": "owner",
      "outputs": [
        {
          "name": "",
          "type": "address"
        }
      ],
      "payable": false,
      "stateMutability": "view",
      "type": "function"
    },
    {
      "constant": true,
      "inputs": [],
      "name": "endTrialTimestamp",
      "outputs": [
        {
          "name": "",
          "type": "uint256"
        }
      ],
      "payable": false,
      "stateMutability": "view",
      "type": "function"
    },
    {
      "constant": true,
      "inputs": [],
      "name": "cancelled",
      "outputs": [
        {
          "name": "",
          "type": "bool"
        }
      ],
      "payable": false,
      "stateMutability": "view",
      "type": "function"
    },
    {
      "constant": true,
      "inputs": [],
      "name": "employee",
      "outputs": [
        {
          "name": "",
          "type": "address"
        }
      ],
      "payable": false,
      "stateMutability": "view",
      "type": "function"
    },
    {
      "constant": true,
      "inputs": [],
      "name": "endTimestamp",
      "outputs": [
        {
          "name": "",
          "type": "uint256"
        }
      ],
      "payable": false,
      "stateMutability": "view",
      "type": "function"
    },
    {
      "constant": true,
      "inputs": [],
      "name": "trialPeriod",
      "outputs": [
        {
          "name": "",
          "type": "uint256"
        }
      ],
      "payable": false,
      "stateMutability": "view",
      "type": "function"
    },
    {
      "constant": true,
      "inputs": [],
      "name": "timeframe",
      "outputs": [
        {
          "name": "",
          "type": "uint256"
        }
      ],
      "payable": false,
      "stateMutability": "view",
      "type": "function"
    },
    {
      "inputs": [
        {
          "name": "_endTimestamp",
          "type": "uint256"
        },
        {
          "name": "_trialEndTimestamp",
          "type": "uint256"
        }
      ],
      "payable": false,
      "stateMutability": "nonpayable",
      "type": "constructor"
    },
    {
      "anonymous": false,
      "inputs": [
        {
          "indexed": false,
          "name": "amount",
          "type": "uint256"
        }
      ],
      "name": "_deposit",
      "type": "event"
    },
    {
      "anonymous": false,
      "inputs": [
        {
          "indexed": false,
          "name": "employee",
          "type": "address"
        }
      ],
      "name": "_handshake",
      "type": "event"
    },
    {
      "anonymous": false,
      "inputs": [],
      "name": "_completed",
      "type": "event"
    },
    {
      "anonymous": false,
      "inputs": [],
      "name": "_cancelled",
      "type": "event"
    },
    {
      "anonymous": false,
      "inputs": [
        {
          "indexed": false,
          "name": "amount",
          "type": "uint256"
        }
      ],
      "name": "_pay",
      "type": "event"
    },
    {
      "constant": false,
      "inputs": [],
      "name": "handShake",
      "outputs": [],
      "payable": false,
      "stateMutability": "nonpayable",
      "type": "function"
    },
    {
      "constant": false,
      "inputs": [],
      "name": "deposit",
      "outputs": [],
      "payable": true,
      "stateMutability": "payable",
      "type": "function"
    },
    {
      "constant": true,
      "inputs": [],
      "name": "getBalance",
      "outputs": [
        {
          "name": "",
          "type": "uint256"
        }
      ],
      "payable": false,
      "stateMutability": "view",
      "type": "function"
    },
    {
      "constant": true,
      "inputs": [],
      "name": "isCompleted",
      "outputs": [
        {
          "name": "",
          "type": "bool"
        }
      ],
      "payable": false,
      "stateMutability": "view",
      "type": "function"
    },
    {
      "constant": true,
      "inputs": [],
      "name": "passedTimeFrame",
      "outputs": [
        {
          "name": "",
          "type": "bool"
        }
      ],
      "payable": false,
      "stateMutability": "view",
      "type": "function"
    },
    {
      "constant": false,
      "inputs": [],
      "name": "pay",
      "outputs": [],
      "payable": false,
      "stateMutability": "nonpayable",
      "type": "function"
    },
    {
      "constant": false,
      "inputs": [],
      "name": "cancel",
      "outputs": [],
      "payable": false,
      "stateMutability": "nonpayable",
      "type": "function"
    },
    {
      "constant": false,
      "inputs": [],
      "name": "complete",
      "outputs": [],
      "payable": false,
      "stateMutability": "nonpayable",
      "type": "function"
    }
  ],
  "bytecode": "0x60606040526000600760006101000a81548160ff0219169083151502179055506000600760016101000a81548160ff021916908315150217905550341561004557600080fd5b604051604080610c0b83398101604052808051906020019091908051906020019091905050336000806101000a81548173ffffffffffffffffffffffffffffffffffffffff021916908373ffffffffffffffffffffffffffffffffffffffff16021790555081600581905550806006819055506100d361012664010000000002610a9a176401000000009004565b6004819055506100f461012664010000000002610a9a176401000000009004565b820360028190555061011761012664010000000002610a9a176401000000009004565b8103600381905550505061012e565b600042905090565b610ace8061013d6000396000f3006060604052600436106100f1576000357c0100000000000000000000000000000000000000000000000000000000900463ffffffff16806312065fe0146100f65780631b9265b81461011f5780632ad873241461013457806344b45c5014610161578063522e11771461018e57806378e97925146101a35780638da5cb5b146101cc5780639305fdd5146102215780639761076f1461024a5780639a82a09a1461025f578063a0a1a7d71461028c578063a85adeab146102e1578063ad36725e1461030a578063ba59b66f14610333578063d0e30db01461035c578063ea8a1af014610366578063fa391c641461037b575b600080fd5b341561010157600080fd5b6101096103a8565b6040518082815260200191505060405180910390f35b341561012a57600080fd5b6101326103c7565b005b341561013f57600080fd5b6101476105c2565b604051808215151515815260200191505060405180910390f35b341561016c57600080fd5b6101746105d9565b604051808215151515815260200191505060405180910390f35b341561019957600080fd5b6101a16105ec565b005b34156101ae57600080fd5b6101b661071a565b6040518082815260200191505060405180910390f35b34156101d757600080fd5b6101df610720565b604051808273ffffffffffffffffffffffffffffffffffffffff1673ffffffffffffffffffffffffffffffffffffffff16815260200191505060405180910390f35b341561022c57600080fd5b610234610745565b6040518082815260200191505060405180910390f35b341561025557600080fd5b61025d61074b565b005b341561026a57600080fd5b61027261084d565b604051808215151515815260200191505060405180910390f35b341561029757600080fd5b61029f610860565b604051808273ffffffffffffffffffffffffffffffffffffffff1673ffffffffffffffffffffffffffffffffffffffff16815260200191505060405180910390f35b34156102ec57600080fd5b6102f4610886565b6040518082815260200191505060405180910390f35b341561031557600080fd5b61031d61088c565b6040518082815260200191505060405180910390f35b341561033e57600080fd5b610346610892565b6040518082815260200191505060405180910390f35b610364610898565b005b341561037157600080fd5b61037961092c565b005b341561038657600080fd5b61038e610a63565b604051808215151515815260200191505060405180910390f35b60003073ffffffffffffffffffffffffffffffffffffffff1631905090565b6000803373ffffffffffffffffffffffffffffffffffffffff16600160009054906101000a900473ffffffffffffffffffffffffffffffffffffffff1673ffffffffffffffffffffffffffffffffffffffff1614151561042657600080fd5b60035460045401610435610a9a565b1015151561044257600080fd5b3073ffffffffffffffffffffffffffffffffffffffff163191506104646105c2565b1561050757600160009054906101000a900473ffffffffffffffffffffffffffffffffffffffff1673ffffffffffffffffffffffffffffffffffffffff166108fc839081150290604051600060405180830381858888f1935050505015156104cb57600080fd5b7fc1c4276d8132dd667673edcac2941584fd465e285b45009ced667891a23f2dac826040518082815260200191505060405180910390a16105be565b600254600454610515610a9a565b03830281151561052157fe5b049050600160009054906101000a900473ffffffffffffffffffffffffffffffffffffffff1673ffffffffffffffffffffffffffffffffffffffff166108fc829081150290604051600060405180830381858888f19350505050151561058657600080fd5b7fc1c4276d8132dd667673edcac2941584fd465e285b45009ced667891a23f2dac816040518082815260200191505060405180910390a15b5050565b60006002546004546105d2610a9a565b0311905090565b600760019054906101000a900460ff1681565b3373ffffffffffffffffffffffffffffffffffffffff166000809054906101000a900473ffffffffffffffffffffffffffffffffffffffff1673ffffffffffffffffffffffffffffffffffffffff1614151561064757600080fd5b600060045411151561065857600080fd5b600160009054906101000a900473ffffffffffffffffffffffffffffffffffffffff1673ffffffffffffffffffffffffffffffffffffffff166108fc3073ffffffffffffffffffffffffffffffffffffffff16319081150290604051600060405180830381858888f1935050505015156106d157600080fd5b6001600760016101000a81548160ff0219169083151502179055507ffb8319c9ef827981794b0a85f81971559f2ab35af6743bbc4a25bf7a66bdc46660405160405180910390a1565b60045481565b6000809054906101000a900473ffffffffffffffffffffffffffffffffffffffff1681565b60065481565b3373ffffffffffffffffffffffffffffffffffffffff166000809054906101000a900473ffffffffffffffffffffffffffffffffffffffff1673ffffffffffffffffffffffffffffffffffffffff16141515156107a757600080fd5b33600160006101000a81548173ffffffffffffffffffffffffffffffffffffffff021916908373ffffffffffffffffffffffffffffffffffffffff1602179055507f1e4f6879a608b32c57659f68ccbfd74124befec5cf79d8c4a9aadae1577a70ea33604051808273ffffffffffffffffffffffffffffffffffffffff1673ffffffffffffffffffffffffffffffffffffffff16815260200191505060405180910390a1565b600760009054906101000a900460ff1681565b600160009054906101000a900473ffffffffffffffffffffffffffffffffffffffff1681565b60055481565b60035481565b60025481565b3373ffffffffffffffffffffffffffffffffffffffff166000809054906101000a900473ffffffffffffffffffffffffffffffffffffffff1673ffffffffffffffffffffffffffffffffffffffff161415156108f357600080fd5b7f9213b124ef0123fea75442003792797a5bf69c1844526bdc406d3e452afae5c7346040518082815260200191505060405180910390a1565b3373ffffffffffffffffffffffffffffffffffffffff166000809054906101000a900473ffffffffffffffffffffffffffffffffffffffff1673ffffffffffffffffffffffffffffffffffffffff1614151561098757600080fd5b60035460045401610996610a9a565b1015156109a257600080fd5b6000809054906101000a900473ffffffffffffffffffffffffffffffffffffffff1673ffffffffffffffffffffffffffffffffffffffff166108fc3073ffffffffffffffffffffffffffffffffffffffff16319081150290604051600060405180830381858888f193505050501515610a1a57600080fd5b6001600760006101000a81548160ff0219169083151502179055507fbe7bf1c4497867104d4dbc15b1d05eb08cbc89bd3b6086b8e47b38b58c4fe4e560405160405180910390a1565b6000600760019054906101000a900460ff1680610a845750610a836105c2565b5b15610a925760019050610a97565b600090505b90565b6000429050905600a165627a7a72305820e7c3539f47a55f6d8e7325a0b65c5099408560cffecc72a3f5e91edbf9c04a2d0029",
  "source": "pragma solidity 0.4.21;\n\n\ncontract Payroll {\n    address public owner;\n    address public employee;\n    uint256 public timeframe;\n    uint256 public trialPeriod;\n    uint256 public startTime;\n    uint256 public endTimestamp;\n    uint256 public endTrialTimestamp;\n    bool public cancelled = false;\n    bool public markCompleted = false;\n\n    event _deposit(uint amount);\n    event _handshake(address employee);\n    event _completed();\n    event _cancelled();\n    event _pay(uint amount);\n\n    function Payroll (uint256 _endTimestamp, uint256 _trialEndTimestamp) public {\n      owner = msg.sender;\n      endTimestamp = _endTimestamp;\n      endTrialTimestamp = _trialEndTimestamp;\n      startTime = getTimestamp();\n      timeframe = _endTimestamp - getTimestamp();\n      trialPeriod = _trialEndTimestamp - getTimestamp();\n    }\n\n    modifier onlyStarted() {\n      require(startTime > 0);\n      _;\n    }\n\n    modifier onlyOwner() {\n      require(owner == msg.sender);\n      _;\n    }\n\n    modifier onlyEmployee() {\n      require(employee == msg.sender);\n      _;\n    }\n\n    modifier notOwner() {\n      require(owner != msg.sender);\n      _;\n    }\n\n    modifier notTrialPeriod() {\n      require(getTimestamp() >= startTime + trialPeriod);\n      _;\n    }\n\n    modifier onlyTrialPeriod() {\n      require(getTimestamp() < startTime + trialPeriod);\n      _;\n    }\n\n    function handShake () notOwner public {\n      employee = msg.sender;\n      // startTime = now;\n      emit _handshake(msg.sender);\n    }\n\n    function deposit() onlyOwner payable public {\n      emit _deposit(msg.value);\n    }\n\n    function getBalance() constant public returns (uint) {\n      return address(this).balance;\n    }\n\n    function getTimestamp() constant internal returns (uint256) {\n      return now;\n    }\n\n    function isCompleted() constant public returns (bool) {\n      if (markCompleted || passedTimeFrame()) {\n        return true;\n      }\n\n      return false;\n    }\n\n    function passedTimeFrame() constant public returns (bool) {\n      return getTimestamp() - startTime > timeframe;\n    }\n\n    function pay() onlyEmployee notTrialPeriod public {\n      uint balance = address(this).balance;\n      if (passedTimeFrame()) {\n        employee.transfer(balance);\n        emit _pay(balance);\n      } else {\n        uint amount = balance * (getTimestamp() - startTime) / timeframe;\n        employee.transfer(amount);\n        emit _pay(amount);\n      }\n    }\n\n    function cancel() onlyOwner onlyTrialPeriod public {\n      owner.transfer(address(this).balance);\n      cancelled = true;\n      emit _cancelled();\n    }\n\n    function complete() onlyOwner onlyStarted public {\n      employee.transfer(address(this).balance);\n      markCompleted = true;\n      emit _completed();\n    }\n\n}\n",
  "sourcePath": "/Users/kata/dev/payroll-dapp/contract/contracts/Payroll.sol",
  "compiler": {
    "name": "solc",
    "version": "0.4.21+commit.dfe3193c.Emscripten.clang"
  },
  "schemaVersion": "2.0.0",
  "updatedAt": "2018-04-30T03:26:32.131Z"
}